{
  "_format": "hh-sol-artifact-1",
  "contractName": "MuhammadSaadSupplyChain",
  "sourceName": "contracts/MuhammadSaad_supplychain.sol",
  "abi": [
    {
      "inputs": [],
      "stateMutability": "nonpayable",
      "type": "constructor"
    },
    {
      "inputs": [],
      "name": "AccessControlBadConfirmation",
      "type": "error"
    },
    {
      "inputs": [
        {
          "internalType": "address",
          "name": "account",
          "type": "address"
        },
        {
          "internalType": "bytes32",
          "name": "neededRole",
          "type": "bytes32"
        }
      ],
      "name": "AccessControlUnauthorizedAccount",
      "type": "error"
    },
    {
      "anonymous": false,
      "inputs": [
        {
          "indexed": true,
          "internalType": "uint256",
          "name": "id",
          "type": "uint256"
        },
        {
          "indexed": true,
          "internalType": "address",
          "name": "from",
          "type": "address"
        },
        {
          "indexed": true,
          "internalType": "address",
          "name": "to",
          "type": "address"
        },
        {
          "indexed": false,
          "internalType": "enum MuhammadSaadSupplyChain.ProductStatus",
          "name": "status",
          "type": "uint8"
        }
      ],
      "name": "OwnershipTransferred",
      "type": "event"
    },
    {
      "anonymous": false,
      "inputs": [
        {
          "indexed": true,
          "internalType": "uint256",
          "name": "id",
          "type": "uint256"
        },
        {
          "indexed": false,
          "internalType": "string",
          "name": "name",
          "type": "string"
        },
        {
          "indexed": true,
          "internalType": "address",
          "name": "manufacturer",
          "type": "address"
        }
      ],
      "name": "ProductRegistered",
      "type": "event"
    },
    {
      "anonymous": false,
      "inputs": [
        {
          "indexed": true,
          "internalType": "uint256",
          "name": "id",
          "type": "uint256"
        },
        {
          "indexed": false,
          "internalType": "enum MuhammadSaadSupplyChain.ProductStatus",
          "name": "oldStatus",
          "type": "uint8"
        },
        {
          "indexed": false,
          "internalType": "enum MuhammadSaadSupplyChain.ProductStatus",
          "name": "newStatus",
          "type": "uint8"
        }
      ],
      "name": "ProductStatusUpdated",
      "type": "event"
    },
    {
      "anonymous": false,
      "inputs": [
        {
          "indexed": true,
          "internalType": "bytes32",
          "name": "role",
          "type": "bytes32"
        },
        {
          "indexed": true,
          "internalType": "bytes32",
          "name": "previousAdminRole",
          "type": "bytes32"
        },
        {
          "indexed": true,
          "internalType": "bytes32",
          "name": "newAdminRole",
          "type": "bytes32"
        }
      ],
      "name": "RoleAdminChanged",
      "type": "event"
    },
    {
      "anonymous": false,
      "inputs": [
        {
          "indexed": true,
          "internalType": "bytes32",
          "name": "role",
          "type": "bytes32"
        },
        {
          "indexed": true,
          "internalType": "address",
          "name": "account",
          "type": "address"
        },
        {
          "indexed": true,
          "internalType": "address",
          "name": "sender",
          "type": "address"
        }
      ],
      "name": "RoleGranted",
      "type": "event"
    },
    {
      "anonymous": false,
      "inputs": [
        {
          "indexed": true,
          "internalType": "bytes32",
          "name": "role",
          "type": "bytes32"
        },
        {
          "indexed": true,
          "internalType": "address",
          "name": "account",
          "type": "address"
        },
        {
          "indexed": true,
          "internalType": "address",
          "name": "sender",
          "type": "address"
        }
      ],
      "name": "RoleRevoked",
      "type": "event"
    },
    {
      "inputs": [],
      "name": "CUSTOMER_ROLE",
      "outputs": [
        {
          "internalType": "bytes32",
          "name": "",
          "type": "bytes32"
        }
      ],
      "stateMutability": "view",
      "type": "function"
    },
    {
      "inputs": [],
      "name": "DEFAULT_ADMIN_ROLE",
      "outputs": [
        {
          "internalType": "bytes32",
          "name": "",
          "type": "bytes32"
        }
      ],
      "stateMutability": "view",
      "type": "function"
    },
    {
      "inputs": [],
      "name": "DISTRIBUTOR_ROLE",
      "outputs": [
        {
          "internalType": "bytes32",
          "name": "",
          "type": "bytes32"
        }
      ],
      "stateMutability": "view",
      "type": "function"
    },
    {
      "inputs": [],
      "name": "MANUFACTURER_ROLE",
      "outputs": [
        {
          "internalType": "bytes32",
          "name": "",
          "type": "bytes32"
        }
      ],
      "stateMutability": "view",
      "type": "function"
    },
    {
      "inputs": [],
      "name": "RETAILER_ROLE",
      "outputs": [
        {
          "internalType": "bytes32",
          "name": "",
          "type": "bytes32"
        }
      ],
      "stateMutability": "view",
      "type": "function"
    },
    {
      "inputs": [
        {
          "internalType": "uint256",
          "name": "_id",
          "type": "uint256"
        }
      ],
      "name": "getProduct",
      "outputs": [
        {
          "components": [
            {
              "internalType": "uint256",
              "name": "id",
              "type": "uint256"
            },
            {
              "internalType": "string",
              "name": "name",
              "type": "string"
            },
            {
              "internalType": "string",
              "name": "description",
              "type": "string"
            },
            {
              "internalType": "address",
              "name": "currentOwner",
              "type": "address"
            },
            {
              "internalType": "enum MuhammadSaadSupplyChain.ProductStatus",
              "name": "status",
              "type": "uint8"
            }
          ],
          "internalType": "struct MuhammadSaadSupplyChain.Product",
          "name": "",
          "type": "tuple"
        }
      ],
      "stateMutability": "view",
      "type": "function"
    },
    {
      "inputs": [
        {
          "internalType": "uint256",
          "name": "_id",
          "type": "uint256"
        }
      ],
      "name": "getProductHistory",
      "outputs": [
        {
          "internalType": "address[]",
          "name": "",
          "type": "address[]"
        }
      ],
      "stateMutability": "view",
      "type": "function"
    },
    {
      "inputs": [
        {
          "internalType": "bytes32",
          "name": "role",
          "type": "bytes32"
        }
      ],
      "name": "getRoleAdmin",
      "outputs": [
        {
          "internalType": "bytes32",
          "name": "",
          "type": "bytes32"
        }
      ],
      "stateMutability": "view",
      "type": "function"
    },
    {
      "inputs": [
        {
          "internalType": "bytes32",
          "name": "role",
          "type": "bytes32"
        },
        {
          "internalType": "address",
          "name": "account",
          "type": "address"
        }
      ],
      "name": "grantRole",
      "outputs": [],
      "stateMutability": "nonpayable",
      "type": "function"
    },
    {
      "inputs": [
        {
          "internalType": "bytes32",
          "name": "role",
          "type": "bytes32"
        },
        {
          "internalType": "address",
          "name": "account",
          "type": "address"
        }
      ],
      "name": "grantSupplyRole",
      "outputs": [],
      "stateMutability": "nonpayable",
      "type": "function"
    },
    {
      "inputs": [
        {
          "internalType": "bytes32",
          "name": "role",
          "type": "bytes32"
        },
        {
          "internalType": "address",
          "name": "account",
          "type": "address"
        }
      ],
      "name": "hasRole",
      "outputs": [
        {
          "internalType": "bool",
          "name": "",
          "type": "bool"
        }
      ],
      "stateMutability": "view",
      "type": "function"
    },
    {
      "inputs": [
        {
          "internalType": "uint256",
          "name": "_id",
          "type": "uint256"
        },
        {
          "internalType": "string",
          "name": "_name",
          "type": "string"
        },
        {
          "internalType": "string",
          "name": "_description",
          "type": "string"
        }
      ],
      "name": "registerProduct",
      "outputs": [],
      "stateMutability": "nonpayable",
      "type": "function"
    },
    {
      "inputs": [
        {
          "internalType": "bytes32",
          "name": "role",
          "type": "bytes32"
        },
        {
          "internalType": "address",
          "name": "callerConfirmation",
          "type": "address"
        }
      ],
      "name": "renounceRole",
      "outputs": [],
      "stateMutability": "nonpayable",
      "type": "function"
    },
    {
      "inputs": [
        {
          "internalType": "bytes32",
          "name": "role",
          "type": "bytes32"
        },
        {
          "internalType": "address",
          "name": "account",
          "type": "address"
        }
      ],
      "name": "revokeRole",
      "outputs": [],
      "stateMutability": "nonpayable",
      "type": "function"
    },
    {
      "inputs": [
        {
          "internalType": "bytes4",
          "name": "interfaceId",
          "type": "bytes4"
        }
      ],
      "name": "supportsInterface",
      "outputs": [
        {
          "internalType": "bool",
          "name": "",
          "type": "bool"
        }
      ],
      "stateMutability": "view",
      "type": "function"
    },
    {
      "inputs": [
        {
          "internalType": "uint256",
          "name": "_id",
          "type": "uint256"
        },
        {
          "internalType": "address",
          "name": "_newOwner",
          "type": "address"
        }
      ],
      "name": "transferOwnership",
      "outputs": [],
      "stateMutability": "nonpayable",
      "type": "function"
    },
    {
      "inputs": [
        {
          "internalType": "uint256",
          "name": "_id",
          "type": "uint256"
        },
        {
          "internalType": "enum MuhammadSaadSupplyChain.ProductStatus",
          "name": "_newStatus",
          "type": "uint8"
        }
      ],
      "name": "updateProductStatus",
      "outputs": [],
      "stateMutability": "nonpayable",
      "type": "function"
    }
  ],
  "bytecode": "0x608060405234801561001057600080fd5b5061001c60003361004d565b506100477feefb95e842a3287179d933b4460be539a1d5af11aa8b325bb45c5c8dc92de4ed3361004d565b506100f9565b6000828152602081815260408083206001600160a01b038516845290915281205460ff166100ef576000838152602081815260408083206001600160a01b03861684529091529020805460ff191660011790556100a73390565b6001600160a01b0316826001600160a01b0316847f2f8788117e7eff1d82e926ec794901d17c78024a50270940304540a733656f0d60405160405180910390a45060016100f3565b5060005b92915050565b611668806101086000396000f3fe608060405234801561001057600080fd5b506004361061010b5760003560e01c806357a096a1116100a2578063a217fddf11610071578063a217fddf1461024e578063b9db15b414610256578063d547741f14610276578063e9f49f9614610289578063f0bd87cc1461029c57600080fd5b806357a096a1146101f357806391d1485414610213578063920e262114610226578063965288b01461023957600080fd5b8063248a9ca3116100de578063248a9ca31461019757806329507f73146101ba5780632f2ff15d146101cd57806336568abe146101e057600080fd5b806301ffc9a7146101105780631d7321ef14610138578063204d79231461014d5780632115e7bf14610182575b600080fd5b61012361011e366004611124565b6102b1565b60405190151581526020015b60405180910390f35b61014b610146366004611171565b6102e8565b005b6101747f288a15c4a15d470e4cd9cad2f113b91206b520c26dbd3dd74627f0c057baa19c81565b60405190815260200161012f565b61017460008051602061161383398151915281565b6101746101a536600461119d565b60009081526020819052604090206001015490565b61014b6101c8366004611171565b6103ad565b61014b6101db366004611171565b610790565b61014b6101ee366004611171565b6107bb565b61020661020136600461119d565b6107ee565b60405161012f91906111b6565b610123610221366004611171565b610889565b61014b610234366004611203565b6108b2565b6101746000805160206115d383398151915281565b610174600081565b61026961026436600461119d565b610b8c565b60405161012f91906112b5565b61014b610284366004611171565b610d55565b61014b610297366004611370565b610d7a565b6101746000805160206115f383398151915281565b60006001600160e01b03198216637965db0b60e01b14806102e257506301ffc9a760e01b6001600160e01b03198316145b92915050565b60006102f381610f95565b6000805160206115d383398151915283148061031c57506000805160206115f383398151915283145b80610334575060008051602061161383398151915283145b8061035e57507f288a15c4a15d470e4cd9cad2f113b91206b520c26dbd3dd74627f0c057baa19c83145b61039e5760405162461bcd60e51b815260206004820152600c60248201526b496e76616c696420726f6c6560a01b60448201526064015b60405180910390fd5b6103a88383610790565b505050565b60008281526003602052604090205460ff166103db5760405162461bcd60e51b8152600401610395906113ea565b6001600160a01b0381166104255760405162461bcd60e51b815260206004820152601160248201527024b73b30b634b2103732bb9037bbb732b960791b6044820152606401610395565b600082815260016020526040902060038101546001600160a01b0316331461048f5760405162461bcd60e51b815260206004820152601f60248201527f4f6e6c792063757272656e74206f776e65722063616e207472616e73666572006044820152606401610395565b6104a76000805160206115d383398151915233610889565b15610548576104c46000805160206115f383398151915283610889565b6105265760405162461bcd60e51b815260206004820152602d60248201527f4d616e7566616374757265722063616e207472616e73666572206f6e6c79207460448201526c37902234b9ba3934b13aba37b960991b6064820152608401610395565b6003810180546001919060ff60a01b1916600160a01b835b02179055506106f2565b6105606000805160206115f383398151915233610889565b156105db5761057d60008051602061161383398151915283610889565b6105265760405162461bcd60e51b815260206004820152602960248201527f4469737472696275746f722063616e207472616e73666572206f6e6c7920746f604482015268102932ba30b4b632b960b91b6064820152608401610395565b6105f360008051602061161383398151915233610889565b15610699576106227f288a15c4a15d470e4cd9cad2f113b91206b520c26dbd3dd74627f0c057baa19c83610889565b61067d5760405162461bcd60e51b815260206004820152602660248201527f52657461696c65722063616e207472616e73666572206f6e6c7920746f20437560448201526539ba37b6b2b960d11b6064820152608401610395565b6003810180546002919060ff60a01b1916600160a01b8361053e565b60405162461bcd60e51b815260206004820152602860248201527f53656e64657220646f6573206e6f7420686176652061207472616e7366657261604482015267626c6520726f6c6560c01b6064820152608401610395565b6003810180546001600160a01b038481166001600160a01b03198084168217855560008881526002602090815260408083208054600181018255908452919092200180549092168317909155935493519190921692839187917f0d9d3ad1299833596bec6138aae47314cbb71fb92c7582abed06e22840593ad4916107829160ff600160a01b909104169061141a565b60405180910390a450505050565b6000828152602081905260409020600101546107ab81610f95565b6107b58383610fa2565b50505050565b6001600160a01b03811633146107e45760405163334bd91960e11b815260040160405180910390fd5b6103a88282611034565b60008181526003602052604090205460609060ff1661081f5760405162461bcd60e51b8152600401610395906113ea565b6000828152600260209081526040918290208054835181840281018401909452808452909183018282801561087d57602002820191906000526020600020905b81546001600160a01b0316815260019091019060200180831161085f575b50505050509050919050565b6000918252602082815260408084206001600160a01b0393909316845291905290205460ff1690565b60008281526003602052604090205460ff166108e05760405162461bcd60e51b8152600401610395906113ea565b600082815260016020526040902060038101546001600160a01b031633146109565760405162461bcd60e51b8152602060048201526024808201527f4f6e6c792063757272656e74206f776e65722063616e207570646174652073746044820152636174757360e01b6064820152608401610395565b6003810154600160a01b900460ff168060028111156109775761097761127d565b60ff1683600281111561098c5761098c61127d565b60ff1610156109dd5760405162461bcd60e51b815260206004820152601a60248201527f5374617475732063616e6e6f7420676f206261636b77617264730000000000006044820152606401610395565b6109f560008051602061161383398151915233610889565b15610a8c576002836002811115610a0e57610a0e61127d565b1480610a2b57506001836002811115610a2957610a2961127d565b145b610a875760405162461bcd60e51b815260206004820152602760248201527f52657461696c65722063616e2073657420496e5472616e736974206f722044656044820152661b1a5d995c995960ca1b6064820152608401610395565b610b20565b6002836002811115610aa057610aa061127d565b141580610ac05750610ac06000805160206115f383398151915233610889565b610b205760405162461bcd60e51b815260206004820152602b60248201527f4f6e6c79206469737472696275746f722f72657461696c65722063616e20736560448201526a1d0811195b1a5d995c995960aa1b6064820152608401610395565b60038201805484919060ff60a01b1916600160a01b836002811115610b4757610b4761127d565b0217905550837fc5ac3d5e45a0cd71bc6a3deceb387d3bd046f17354b8bb77c2186707d100b1858285604051610b7e929190611428565b60405180910390a250505050565b610b946110dc565b60008281526003602052604090205460ff16610bc25760405162461bcd60e51b8152600401610395906113ea565b600082815260016020818152604092839020835160a0810190945280548452918201805491840191610bf390611443565b80601f0160208091040260200160405190810160405280929190818152602001828054610c1f90611443565b8015610c6c5780601f10610c4157610100808354040283529160200191610c6c565b820191906000526020600020905b815481529060010190602001808311610c4f57829003601f168201915b50505050508152602001600282018054610c8590611443565b80601f0160208091040260200160405190810160405280929190818152602001828054610cb190611443565b8015610cfe5780601f10610cd357610100808354040283529160200191610cfe565b820191906000526020600020905b815481529060010190602001808311610ce157829003601f168201915b505050918352505060038201546001600160a01b0381166020830152604090910190600160a01b900460ff166002811115610d3b57610d3b61127d565b6002811115610d4c57610d4c61127d565b90525092915050565b600082815260208190526040902060010154610d7081610f95565b6107b58383611034565b6000805160206115d3833981519152610d9281610f95565b60008681526003602052604090205460ff1615610dea5760405162461bcd60e51b815260206004820152601660248201527550726f6475637420616c72656164792065786973747360501b6044820152606401610395565b6040518060a0016040528087815260200186868080601f016020809104026020016040519081016040528093929190818152602001838380828437600092019190915250505090825250604080516020601f87018190048102820181019092528581529181019190869086908190840183828082843760009201829052509385525050336020840152506040909101526000878152600160208181526040909220835181559183015190820190610ea190826114e3565b5060408201516002820190610eb690826114e3565b5060608201516003820180546001600160a01b039092166001600160a01b03198316811782556080850151926001600160a81b03191617600160a01b836002811115610f0457610f0461127d565b021790555050506000868152600360209081526040808320805460ff1916600190811790915560028352818420805491820181558452919092200180546001600160a01b03191633908117909155905187907fd810998a0248808a33b20218e71759cb2ec1a182b398350ad606d742587c012c90610f8590899089906115a3565b60405180910390a3505050505050565b610f9f813361109f565b50565b6000610fae8383610889565b61102c576000838152602081815260408083206001600160a01b03861684529091529020805460ff19166001179055610fe43390565b6001600160a01b0316826001600160a01b0316847f2f8788117e7eff1d82e926ec794901d17c78024a50270940304540a733656f0d60405160405180910390a45060016102e2565b5060006102e2565b60006110408383610889565b1561102c576000838152602081815260408083206001600160a01b0386168085529252808320805460ff1916905551339286917ff6391f5c32d9c69d2a47ea670b442974b53935d1edc7fd64eb21e047a839171b9190a45060016102e2565b6110a98282610889565b6110d85760405163e2517d3f60e01b81526001600160a01b038216600482015260248101839052604401610395565b5050565b6040518060a0016040528060008152602001606081526020016060815260200160006001600160a01b031681526020016000600281111561111f5761111f61127d565b905290565b60006020828403121561113657600080fd5b81356001600160e01b03198116811461114e57600080fd5b9392505050565b80356001600160a01b038116811461116c57600080fd5b919050565b6000806040838503121561118457600080fd5b8235915061119460208401611155565b90509250929050565b6000602082840312156111af57600080fd5b5035919050565b6020808252825182820181905260009190848201906040850190845b818110156111f75783516001600160a01b0316835292840192918401916001016111d2565b50909695505050505050565b6000806040838503121561121657600080fd5b8235915060208301356003811061122c57600080fd5b809150509250929050565b6000815180845260005b8181101561125d57602081850181015186830182015201611241565b506000602082860101526020601f19601f83011685010191505092915050565b634e487b7160e01b600052602160045260246000fd5b600381106112b157634e487b7160e01b600052602160045260246000fd5b9052565b60208152815160208201526000602083015160a060408401526112db60c0840182611237565b90506040840151601f198483030160608501526112f88282611237565b91505060018060a01b036060850151166080840152608084015161131f60a0850182611293565b509392505050565b60008083601f84011261133957600080fd5b50813567ffffffffffffffff81111561135157600080fd5b60208301915083602082850101111561136957600080fd5b9250929050565b60008060008060006060868803121561138857600080fd5b85359450602086013567ffffffffffffffff808211156113a757600080fd5b6113b389838a01611327565b909650945060408801359150808211156113cc57600080fd5b506113d988828901611327565b969995985093965092949392505050565b602080825260169082015275141c9bd91d58dd08191bd95cc81b9bdd08195e1a5cdd60521b604082015260600190565b602081016102e28284611293565b604081016114368285611293565b61114e6020830184611293565b600181811c9082168061145757607f821691505b60208210810361147757634e487b7160e01b600052602260045260246000fd5b50919050565b634e487b7160e01b600052604160045260246000fd5b601f8211156103a8576000816000526020600020601f850160051c810160208610156114bc5750805b601f850160051c820191505b818110156114db578281556001016114c8565b505050505050565b815167ffffffffffffffff8111156114fd576114fd61147d565b6115118161150b8454611443565b84611493565b602080601f831160018114611546576000841561152e5750858301515b600019600386901b1c1916600185901b1785556114db565b600085815260208120601f198616915b8281101561157557888601518255948401946001909101908401611556565b50858210156115935787850151600019600388901b60f8161c191681555b5050505050600190811b01905550565b60208152816020820152818360408301376000818301604090810191909152601f909201601f1916010191905056feeefb95e842a3287179d933b4460be539a1d5af11aa8b325bb45c5c8dc92de4edfbd454f36a7e1a388bd6fc3ab10d434aa4578f811acbbcf33afb1c697486313c2a5f906c256a5d799494fcd066e1f6c077689de1cdb65052a1624de4bace99bfa26469706673582212208f170aff5fbc01d76834f5c3672473d7c6c42e464dacb3732719aa47b59ab9ee64736f6c63430008180033",
  "linkReferences": {},
  "deployedLinkReferences": {}
}